{
  "contractName": "Simpleboard",
  "abi": [
    {
      "constant": true,
      "inputs": [],
      "name": "getResponsesAmount",
      "outputs": [
        {
          "name": "",
          "type": "uint256"
        }
      ],
      "payable": false,
      "stateMutability": "view",
      "type": "function"
    },
    {
      "constant": true,
      "inputs": [
        {
          "name": "resNum",
          "type": "uint8"
        }
      ],
      "name": "getResponseOwner",
      "outputs": [
        {
          "name": "",
          "type": "address"
        }
      ],
      "payable": false,
      "stateMutability": "view",
      "type": "function"
    },
    {
      "constant": true,
      "inputs": [
        {
          "name": "resNum",
          "type": "uint8"
        }
      ],
      "name": "getResponseStr",
      "outputs": [
        {
          "name": "",
          "type": "string"
        }
      ],
      "payable": false,
      "stateMutability": "view",
      "type": "function"
    },
    {
      "constant": false,
      "inputs": [
        {
          "name": "str",
          "type": "string"
        }
      ],
      "name": "postRes",
      "outputs": [],
      "payable": false,
      "stateMutability": "nonpayable",
      "type": "function"
    }
  ],
  "bytecode": "0x6060604052341561000f57600080fd5b61060a8061001e6000396000f300606060405260043610610062576000357c0100000000000000000000000000000000000000000000000000000000900463ffffffff16806323c3f9db146100675780636dded75a1461009057806387de8808146100f6578063c8343ca314610195575b600080fd5b341561007257600080fd5b61007a6101c3565b6040518082815260200191505060405180910390f35b341561009b57600080fd5b6100b4600480803560ff169060200190919050506101cf565b604051808273ffffffffffffffffffffffffffffffffffffffff1673ffffffffffffffffffffffffffffffffffffffff16815260200191505060405180910390f35b341561010157600080fd5b61011a600480803560ff1690602001909190505061021b565b6040518080602001828103825283818151815260200191508051906020019080838360005b8381101561015a57808201518184015260208101905061013f565b50505050905090810190601f1680156101875780820380516001836020036101000a031916815260200191505b509250505060405180910390f35b34156101a057600080fd5b6101c1600480803590602001908201803590602001919091929050506102e6565b005b60008080549050905090565b6000808260ff168154811015156101e257fe5b906000526020600020906002020160000160009054906101000a900473ffffffffffffffffffffffffffffffffffffffff169050919050565b61022361040b565b60008260ff1681548110151561023557fe5b90600052602060002090600202016001018054600181600116156101000203166002900480601f0160208091040260200160405190810160405280929190818152602001828054600181600116156101000203166002900480156102da5780601f106102af576101008083540402835291602001916102da565b820191906000526020600020905b8154815290600101906020018083116102bd57829003601f168201915b50505050509050919050565b6102ee61041f565b6064600080549050111561030157610406565b33816000019073ffffffffffffffffffffffffffffffffffffffff16908173ffffffffffffffffffffffffffffffffffffffff168152505082828080601f0160208091040260200160405190810160405280939291908181526020018383808284378201915050505050508160200181905250600080548060010182816103889190610455565b9160005260206000209060020201600083909190915060008201518160000160006101000a81548173ffffffffffffffffffffffffffffffffffffffff021916908373ffffffffffffffffffffffffffffffffffffffff1602179055506020820151816001019080519060200190610401929190610487565b505050505b505050565b602060405190810160405280600081525090565b6040805190810160405280600073ffffffffffffffffffffffffffffffffffffffff16815260200161044f610507565b81525090565b81548183558181151161048257600202816002028360005260206000209182019101610481919061051b565b5b505050565b828054600181600116156101000203166002900490600052602060002090601f016020900481019282601f106104c857805160ff19168380011785556104f6565b828001600101855582156104f6579182015b828111156104f55782518255916020019190600101906104da565b5b5090506105039190610571565b5090565b602060405190810160405280600081525090565b61056e91905b8082111561056a57600080820160006101000a81549073ffffffffffffffffffffffffffffffffffffffff02191690556001820160006105619190610596565b50600201610521565b5090565b90565b61059391905b8082111561058f576000816000905550600101610577565b5090565b90565b50805460018160011615610100020316600290046000825580601f106105bc57506105db565b601f0160209004906000526020600020908101906105da9190610571565b5b505600a165627a7a7230582009cb5ff5b229cd290f7b1287d84e8b430fd8b2c27dc7282082eac88f387e20820029",
  "source": "pragma solidity 0.4.18;\n\ncontract Simpleboard {\n    struct Topic {\n        address owner;\n        string title;\n    }\n    struct Response {\n        address owner;\n        string str;\n    }\n    Response[] responses;\n    \n    function postRes(string str) external {\n        if (responses.length > 100) return;\n\n        Response memory temp;\n        temp.owner = msg.sender;\n        temp.str = str;\n        \n        responses.push(temp);\n    }\n    function getResponsesAmount() public constant returns(uint){\n        return responses.length;\n    }\n    function getResponseOwner(uint8 resNum) public constant returns (address) {\n        return responses[resNum].owner;\n    }\n    function getResponseStr(uint8 resNum) public constant returns (string) {\n        return responses[resNum].str;\n    }\n}\n",
  "sourcePath": "/home/katio/script/Solidity-simpleboard-webpack/contracts/SimpleBoard.sol",
  "compiler": {
    "name": "solc",
    "version": "0.4.18+commit.9cf6e910.Emscripten.clang"
  },
  "schemaVersion": "1.0.1",
  "updatedAt": "2017-12-22T17:27:02.774Z"
}